{
  "contractName": "Owned",
  "abi": [
    {
      "constant": false,
      "inputs": [],
      "name": "renounceOwnership",
      "outputs": [],
      "payable": false,
      "stateMutability": "nonpayable",
      "type": "function"
    },
    {
      "constant": true,
      "inputs": [],
      "name": "owner",
      "outputs": [
        {
          "name": "",
          "type": "address"
        }
      ],
      "payable": false,
      "stateMutability": "view",
      "type": "function"
    },
    {
      "constant": true,
      "inputs": [],
      "name": "isOwner",
      "outputs": [
        {
          "name": "",
          "type": "bool"
        }
      ],
      "payable": false,
      "stateMutability": "view",
      "type": "function"
    },
    {
      "constant": false,
      "inputs": [
        {
          "name": "newOwner",
          "type": "address"
        }
      ],
      "name": "transferOwnership",
      "outputs": [],
      "payable": false,
      "stateMutability": "nonpayable",
      "type": "function"
    },
    {
      "anonymous": false,
      "inputs": [
        {
          "indexed": true,
          "name": "previousOwner",
          "type": "address"
        },
        {
          "indexed": true,
          "name": "newOwner",
          "type": "address"
        }
      ],
      "name": "OwnershipTransferred",
      "type": "event"
    },
    {
      "constant": true,
      "inputs": [],
      "name": "getCurrentOwner",
      "outputs": [
        {
          "name": "",
          "type": "address"
        }
      ],
      "payable": false,
      "stateMutability": "view",
      "type": "function"
    },
    {
      "constant": true,
      "inputs": [
        {
          "name": "_requester",
          "type": "address"
        }
      ],
      "name": "isThisOwner",
      "outputs": [
        {
          "name": "",
          "type": "bool"
        }
      ],
      "payable": false,
      "stateMutability": "view",
      "type": "function"
    }
  ],
  "bytecode": "0x6080604052336000806101000a81548173ffffffffffffffffffffffffffffffffffffffff021916908373ffffffffffffffffffffffffffffffffffffffff1602179055506000809054906101000a900473ffffffffffffffffffffffffffffffffffffffff1673ffffffffffffffffffffffffffffffffffffffff16600073ffffffffffffffffffffffffffffffffffffffff167f8be0079c531659141344cd1fd0a4f28419497f9722a3daafe3b4186f6b6457e060405160405180910390a3610544806100cf6000396000f3fe608060405260043610610078576000357c0100000000000000000000000000000000000000000000000000000000900463ffffffff1680633d86796f1461007d578063715018a6146100e65780638da5cb5b146100fd5780638f32d59b14610154578063a18a186b14610183578063f2fde38b146101da575b600080fd5b34801561008957600080fd5b506100cc600480360360208110156100a057600080fd5b81019080803573ffffffffffffffffffffffffffffffffffffffff16906020019092919050505061022b565b604051808215151515815260200191505060405180910390f35b3480156100f257600080fd5b506100fb610284565b005b34801561010957600080fd5b50610112610356565b604051808273ffffffffffffffffffffffffffffffffffffffff1673ffffffffffffffffffffffffffffffffffffffff16815260200191505060405180910390f35b34801561016057600080fd5b5061016961037f565b604051808215151515815260200191505060405180910390f35b34801561018f57600080fd5b506101986103d6565b604051808273ffffffffffffffffffffffffffffffffffffffff1673ffffffffffffffffffffffffffffffffffffffff16815260200191505060405180910390f35b3480156101e657600080fd5b50610229600480360360208110156101fd57600080fd5b81019080803573ffffffffffffffffffffffffffffffffffffffff1690602001909291905050506103ff565b005b60008060009054906101000a900473ffffffffffffffffffffffffffffffffffffffff1673ffffffffffffffffffffffffffffffffffffffff168273ffffffffffffffffffffffffffffffffffffffff16149050919050565b61028c61037f565b151561029757600080fd5b600073ffffffffffffffffffffffffffffffffffffffff166000809054906101000a900473ffffffffffffffffffffffffffffffffffffffff1673ffffffffffffffffffffffffffffffffffffffff167f8be0079c531659141344cd1fd0a4f28419497f9722a3daafe3b4186f6b6457e060405160405180910390a360008060006101000a81548173ffffffffffffffffffffffffffffffffffffffff021916908373ffffffffffffffffffffffffffffffffffffffff160217905550565b60008060009054906101000a900473ffffffffffffffffffffffffffffffffffffffff16905090565b60008060009054906101000a900473ffffffffffffffffffffffffffffffffffffffff1673ffffffffffffffffffffffffffffffffffffffff163373ffffffffffffffffffffffffffffffffffffffff1614905090565b60008060009054906101000a900473ffffffffffffffffffffffffffffffffffffffff16905090565b61040761037f565b151561041257600080fd5b61041b8161041e565b50565b600073ffffffffffffffffffffffffffffffffffffffff168173ffffffffffffffffffffffffffffffffffffffff161415151561045a57600080fd5b8073ffffffffffffffffffffffffffffffffffffffff166000809054906101000a900473ffffffffffffffffffffffffffffffffffffffff1673ffffffffffffffffffffffffffffffffffffffff167f8be0079c531659141344cd1fd0a4f28419497f9722a3daafe3b4186f6b6457e060405160405180910390a3806000806101000a81548173ffffffffffffffffffffffffffffffffffffffff021916908373ffffffffffffffffffffffffffffffffffffffff1602179055505056fea165627a7a723058206c590a05c2b4946ed5834822fdcb46b1f4b84b6ea3d3e3c57b8bb23105efc8db0029",
  "source": "pragma solidity ^0.5.0;\r\n/*\r\nBackground:\r\n\r\nThese smart contracts are used to model a simplified business situation (rewarding ideal behaviour of customers and partners with Karma\r\nCredits) of a hearing healthcare devices company. The company (for this demo M4BC2) sells 10 different types of devices - these have different\r\nprice points. M4BC2 works with a network of sales companies and partners (called Karma Members) who sell these devices to end customers.\r\nM4BC2 has identified upto 10 different ways to engage the customer. A successful engagement of the customer will result in a Karma Credit\r\nreward to all the relevant stakeholders (the company, the successful member and the customer). This reward will be proportional to the class of\r\nproduct sold (base difficulty) and the quality of engagement (task difficulty). Karma Credits can be obtained from the contract only through karma\r\n- these cannot be bought with ether.\r\n\r\nIn this simplified example,\r\n  1.  It is assumed that a given member sells only one type of device (indicated by 'Base difficulty').\r\n  2.  The products are not cross verified with the CRM or PIM system. Also, there is no cross verification with customer activity logic\r\n      and rules. Without these cross verifications, there is a scope for frodulant claims for Karma Credit.\r\n\r\nIn subsequnet versions, the following will be done:\r\n  1.  Each member will be able to sell more than one types of devices.\r\n  2.  Products will be registred (using perhaps the hash of their unique ids) and will be mapped against sales states, customer activity\r\n      with clear checks (rules) for awarding karma credits. For e.g. for a given product, the user can buy only once, the user can\r\n      upgrade only once etc\r\n  3.  Accounts trying to claim Karma Credits and failing repeatedly will be frozen for further investigation. Exact rules to be finalised\r\n\r\n\r\n*/\r\n\r\nimport \"zeppelin/ownership/Ownable.sol\";\r\n\r\ncontract Owned is Ownable {\r\n\r\n\r\n    //A way to read the current owner of the contract\r\n    function getCurrentOwner() public view returns (address) {\r\n        return _owner;\r\n    }\r\n\r\n    //A way to verify if a given address corresponds to that of the owner\r\n    function isThisOwner(address _requester) public view returns (bool) {\r\n        return (_requester==_owner);\r\n    }\r\n}\r\n\r\ninterface tokenRecipient { function receiveApproval(address _from, uint256 _value, address _token, bytes calldata _extraData) external ; }\r\n\r\ncontract TokenERC20 {\r\n\r\n    string public name = \"Karma Credit\";\r\n    string public symbol = \"Karma\";\r\n    uint8 public decimals = 18;\r\n    // 18 decimals is the strongly suggested default, avoid changing it\r\n    uint256 constant initialSupply = 30000000000;\r\n    uint256 public totalSupply;\r\n\r\n    // This creates an array with all balances\r\n    mapping (address => uint256) public balanceOf;\r\n    mapping (address => mapping (address => uint256)) public allowance;\r\n\r\n    // This generates a public event on the blockchain that will notify clients\r\n    event Transfer(address indexed from, address indexed to, uint256 value);\r\n\r\n\r\n\r\n    /**\r\n     * Constrctor function\r\n     *\r\n     * Initializes contract with initial supply tokens to the creator of the contract\r\n     */\r\n    constructor() public {\r\n        totalSupply = initialSupply * 10 ** uint256(decimals);  // Update total supply with the decimal amount\r\n    }\r\n\r\n    /**\r\n     * Internal transfer, only can be called by this contract\r\n     */\r\n    function _transfer(address _from, address _to, uint _value) internal {\r\n        // Prevent transfer to 0x0 address. Use burn() instead\r\n        require(_to != 0x0000000000000000000000000000000000000000);\r\n        // Check if the sender has enough\r\n        require(balanceOf[_from] >= _value);\r\n        // Check for overflows\r\n        require(balanceOf[_to] + _value > balanceOf[_to]);\r\n        // Save this for an assertion in the future\r\n        uint previousBalances = balanceOf[_from] + balanceOf[_to];\r\n        // Subtract from the sender\r\n        balanceOf[_from] -= _value;\r\n        // Add the same to the recipient\r\n        balanceOf[_to] += _value;\r\n        emit Transfer(_from, _to, _value);\r\n        // Asserts are used to use static analysis to find bugs in your code. They should never fail\r\n        assert(balanceOf[_from] + balanceOf[_to] == previousBalances);\r\n    }\r\n\r\n    /**\r\n     * Transfer tokens\r\n     *\r\n     * Send `_value` tokens to `_to` from your account\r\n     *\r\n     * @param _to The address of the recipient\r\n     * @param _value the amount to send\r\n     */\r\n    function transfer(address _to, uint256 _value) public {\r\n        _transfer(msg.sender, _to, _value);\r\n    }\r\n\r\n    /**\r\n     * Transfer tokens from other address\r\n     *\r\n     * Send `_value` tokens to `_to` in behalf of `_from`\r\n     *\r\n     * @param _from The address of the sender\r\n     * @param _to The address of the recipient\r\n     * @param _value the amount to send\r\n     */\r\n    function transferFrom(address _from, address _to, uint256 _value) public returns (bool success) {\r\n        require(_value <= allowance[_from][msg.sender]);     // Check allowance\r\n        allowance[_from][msg.sender] -= _value;\r\n        _transfer(_from, _to, _value);\r\n        return true;\r\n    }\r\n\r\n    /**\r\n     * Set allowance for other address\r\n     *\r\n     * Allows `_spender` to spend no more than `_value` tokens in your behalf\r\n     *\r\n     * @param _spender The address authorized to spend\r\n     * @param _value the max amount they can spend\r\n     */\r\n    function approve(address _spender, uint256 _value) public\r\n        returns (bool success) {\r\n        allowance[msg.sender][_spender] = _value;\r\n        return true;\r\n    }\r\n\r\n    /**\r\n     * Set allowance for other address and notify\r\n     *\r\n     * Allows `_spender` to spend no more than `_value` tokens in your behalf, and then ping the contract about it\r\n     *\r\n     * @param _spender The address authorized to spend\r\n     * @param _value the max amount they can spend\r\n     * @param _extraData some extra information to send to the approved contract\r\n     */\r\n    function approveAndCall(address _spender, uint256 _value, bytes memory _extraData)\r\n        public\r\n        returns (bool success) {\r\n        tokenRecipient spender = tokenRecipient(_spender);\r\n        if (approve(_spender, _value)) {\r\n            spender.receiveApproval(msg.sender, _value, address(this), _extraData);\r\n            return true;\r\n        }\r\n    }\r\n\r\n}\r\n\r\n/******************************************/\r\n/*       ADVANCED TOKEN STARTS HERE       */\r\n/******************************************/\r\n\r\ncontract Karma is Owned, TokenERC20 {\r\n\r\n    //uint256 public sellPrice;\r\n    //uint256 public buyPrice;\r\n    uint8 public calDecimals = 17;\r\n\r\n    mapping (address => bool) public frozenAccount;\r\n    address[] public karmaMembers;\r\n    mapping (address => string) private KarmaMemberName;\r\n    mapping (bytes32 => uint) private productRegister;\r\n    mapping (bytes32 => uint) public simpleProdCanBeSold;\r\n    bool private pauseThis = false; //key variable for circuitbreaker\r\n\r\n    /* This generates a public event on the blockchain that will notify clients */\r\n    event FrozenFunds(address target, bool frozen);\r\n\r\n    /* Initializes contract with a Karma Credit for the creator of the contract for successful deployment*/\r\n    constructor() public {\r\n        uint temp1;\r\n        temp1 = 1000 * (10 ** uint256(calDecimals));\r\n        _awardKarma(_owner,temp1);\r\n    }\r\n\r\n    /// A modifier to implement the circuitbreaker\r\n    modifier whenUnpaused() {\r\n        require(!pauseThis);\r\n        _;\r\n    }\r\n\r\n    ///A function used to activate the circuitbreaker\r\n    function pauseThisNow() whenUnpaused onlyOwner private {\r\n        pauseThis = true;\r\n    }\r\n\r\n    /// A function to deactivate the circuitbreaker\r\n    function unpauseThisNow() onlyOwner private {\r\n        require(pauseThis);\r\n        pauseThis = false;\r\n    }\r\n\r\n    /* Internal transfer, only can be called by this contract */\r\n    function _transfer(address _from, address _to, uint _value) whenUnpaused internal {\r\n        require (_to != 0x0000000000000000000000000000000000000000);                               // Prevent transfer to 0x0 address. Use burn() instead\r\n        require (balanceOf[_from] >= _value);               // Check if the sender has enough\r\n        require (balanceOf[_to] + _value >= balanceOf[_to]); // Check for overflows\r\n        require(!frozenAccount[_from]);                     // Check if sender is frozen\r\n        require(!frozenAccount[_to]);                       // Check if recipient is frozen\r\n        balanceOf[_from] -= _value;                         // Subtract from the sender\r\n        balanceOf[_to] += _value;                           // Add the same to the recipient\r\n        emit Transfer(_from, _to, _value);\r\n    }\r\n\r\n    ///A simple implimentation of a project register in order to reduce fake karma credit claims\r\n    /// @param _refNo - hash of the product's unique reference number\r\n    /// @param _difficulty - a number that represents the price range of the product\r\n    function registerProduct(bytes32 _refNo, uint _difficulty) whenUnpaused onlyOwner internal {\r\n      require(_difficulty>0 && _difficulty<11); //difficulty must be within range\r\n      require(productRegister[_refNo] ==0); //A product can be entered only once in the register\r\n      productRegister[_refNo] = _difficulty; //The register tracks the difficulty of the product against the hash of the unique ref no\r\n      simpleProdCanBeSold[_refNo] = 1; //product available in the register and can be sold\r\n    }\r\n\r\n    ///A simple implimentation of a sales register\r\n    /// @param _refNo - hash of the product's unique reference number\r\n    /// @param affiliate - a number that represents the price range of the product\r\n    function registerSale(bytes32 _refNo, address affiliate) whenUnpaused public returns (bool success){\r\n      //only the owner of the affiliate contract can report that a given product has been sold\r\n      KarmaMemberships localMem = KarmaMemberships(affiliate);\r\n      require (localMem.isThisOwner(msg.sender));\r\n      require (simpleProdCanBeSold[_refNo]!=0);//product must be available in the register\r\n      simpleProdCanBeSold[_refNo] = 2;//product is marked to be sold\r\n      return true;\r\n    }\r\n\r\n    ///A simple lookup of a product's sold staus from a sales register\r\n    /// @param _refNo - hash of the product's unique reference number\r\n    function getSoldStatus(bytes32 _refNo) whenUnpaused public returns (uint) {\r\n      return simpleProdCanBeSold[_refNo];\r\n    }\r\n\r\n    /// A function that deploys a karam memberships contract instance for each new member being onboarded\r\n    /// @param _memberName - name of the newly onboardrd affiliate\r\n    /// @param _difficulty - a number that represents the price range of the product sold by the affiliate.\r\n    function createKarmaMembers(string memory _memberName, uint _difficulty) whenUnpaused onlyOwner public  {\r\n        require(_difficulty>0 && _difficulty<11); //difficulty must be within range\r\n        //create a new membership instance\r\n        KarmaMemberships newKarmaMem = new KarmaMemberships(address(this),_memberName,_difficulty);\r\n        uint temp;\r\n        //push the properties of the instance to the registers\r\n        karmaMembers.push(address(newKarmaMem));\r\n        KarmaMemberName[address(newKarmaMem)]= _memberName;\r\n        //The karma contract owner gets a reward for bringing a new affiliate onboard\r\n        temp = 500* (10 ** uint256(calDecimals)); //logic of calculating the karma credit\r\n        _awardKarma(address(newKarmaMem), temp);\r\n        _awardKarma(_owner,temp);\r\n    }\r\n\r\n    /// Claculate the karma credit award for the specified awardee in response to the specified task\r\n    /// @param awardee Address of the recipient of the karma credits\r\n    /// @param taskDifficulty specifies the level of difficulty of the activity that resulted in the karma credit award\r\n    /// @param affiliate specifies the address of the membership contract that corresponds to the affiliate\r\n    function calKarmaAward(address awardee, uint taskDifficulty, address affiliate) whenUnpaused public {\r\n        uint awardAmount;\r\n        KarmaMemberships localMem = KarmaMemberships(affiliate); //access the instance of the membership contract at the adress specified (affiliate)\r\n        require(localMem.isThisOwner(msg.sender)); //this can only be called by the owner of the affiliate contract\r\n        require(taskDifficulty>0 && taskDifficulty<10); //the task difficulty must be in range\r\n        //neither the awardee nor the affiliate can be null\r\n        require(awardee != 0x0000000000000000000000000000000000000000 && affiliate != 0x0000000000000000000000000000000000000000);\r\n\r\n        awardAmount = localMem.getMemberDifficulty() * taskDifficulty * (10 ** uint256(calDecimals)); //award calculation logic\r\n\r\n        _awardKarma(awardee,awardAmount); //awardee gets the karma credits\r\n        _awardKarma(affiliate,awardAmount); //affiliate gets the karma credits\r\n        _awardKarma(_owner,awardAmount); //owner of the karma contract owner\r\n    }\r\n\r\n    /// Award the specified amount of karma credits to the awardee\r\n    /// @param awardee Address of the recipient of the karma credits\r\n    /// @param awardAmount signified the size of the karma credit award to the recipient\r\n    function _awardKarma(address awardee, uint awardAmount) whenUnpaused internal {\r\n        require(awardee != 0x0000000000000000000000000000000000000000);//ensure that the awaredee is not null\r\n        require(!frozenAccount[awardee]);                     // Check if recipient is frozen\r\n        require(totalSupply > awardAmount); //check that the award is lower than the total supply in the contract\r\n        totalSupply -= awardAmount;\r\n        balanceOf[awardee] += awardAmount;\r\n        emit Transfer(address(this), awardee, awardAmount);\r\n\r\n    }\r\n\r\n\r\n    /// @notice `freeze? Prevent | Allow` `target` from sending & receiving tokens\r\n    /// @param target Address to be frozen\r\n    /// @param freeze either to freeze it or not\r\n    function freezeAccount(address target, bool freeze) whenUnpaused onlyOwner public {\r\n        frozenAccount[target] = freeze;\r\n        emit FrozenFunds(target, freeze);\r\n    }\r\n\r\n    ///A function to read the list of instance addressed of all members\r\n    function getKarmaMembers() whenUnpaused public view returns (address[] memory){\r\n      return karmaMembers;\r\n    }\r\n\r\n    ///A function to read the name of the member\r\n    /// @param _deployedAddress Address of member contract instance\r\n    function getKarmaMemberName(address _deployedAddress) whenUnpaused onlyOwner public view returns (string memory){\r\n      return KarmaMemberName[_deployedAddress];\r\n    }\r\n\r\n\r\n/*\r\n    /// @notice Allow users to buy tokens for `newBuyPrice` eth and sell tokens for `newSellPrice` eth\r\n    /// @param newSellPrice Price the users can sell to the contract\r\n    /// @param newBuyPrice Price users can buy from the contract\r\n    function setPrices(uint256 newSellPrice, uint256 newBuyPrice) onlyOwner public {\r\n        sellPrice = newSellPrice;\r\n        buyPrice = newBuyPrice;\r\n    }\r\n\r\n    /// @notice Buy tokens from contract by sending ether\r\n    function buy() payable public {\r\n        uint amount = msg.value / buyPrice;               // calculates the amount\r\n        _transfer(this, msg.sender, amount);              // makes the transfers\r\n    }\r\n\r\n    /// @notice Sell `amount` tokens to contract\r\n    /// @param amount amount of tokens to be sold\r\n    function sell(uint256 amount) public {\r\n        require(this.balance >= amount * sellPrice);      // checks if the contract has enough ether to buy\r\n        _transfer(msg.sender, this, amount);              // makes the transfers\r\n        msg.sender.transfer(amount * sellPrice);          // sends ether to the seller. It's important to do this last to avoid recursion attacks\r\n    }\r\n*/\r\n}\r\n\r\ncontract KarmaMemberships is Owned{\r\n    uint public baseDifficulty; //refers to the price range of the product sold by the affiliate member\r\n    string public memberName; //name of the member\r\n    address public deployedKarmaBase; //the address of the karma contract that activates this instance\r\n\r\n    //temporary variables to control fraudulant karma credit claims\r\n    mapping (address => bool) private cantClaim;\r\n    mapping (address => uint) private claimCount;\r\n    uint public claimCountLimit = 50;\r\n\r\n    ///Constructor function\r\n    constructor(address _deployedKarmaBase, string memory _memberName, uint _difficulty) public {\r\n        deployedKarmaBase = _deployedKarmaBase;\r\n        memberName = _memberName;\r\n        baseDifficulty = _difficulty;\r\n\r\n        Karma deployedKarma = Karma(deployedKarmaBase);\r\n        _owner = deployedKarma.getCurrentOwner();\r\n    }\r\n\r\n    /// A function that allows the member owner to verify and reward patients engaging with the products. This is a temporary\r\n    /// approach. This currently doesnt take the product register or the product sales register into consideration. This will be\r\n    /// replaced by the 2 functions below that are currently commented.\r\n    /// @param awardee Address of the recipient of the karma credits\r\n    /// @param taskDifficulty signified the activity undertkane by the patient as apart of the engagement with the products\r\n    function claimKarma(address awardee, uint taskDifficulty) public onlyOwner{\r\n      //We need to ensure that a given address can only register one new product. Every subsequent purchase is considered as an upgrade\r\n        require(taskDifficulty>0 && taskDifficulty<10); //Task must be within the specified range\r\n        if (taskDifficulty == 9) { //task 9 means new product purchase\r\n            require ((!cantClaim[awardee]) && (claimCount[awardee]<claimCountLimit)); //check if the address has already claimed\r\n        }\r\n        else {\r\n            require (claimCount[awardee]<claimCountLimit);\r\n        }\r\n        Karma(deployedKarmaBase).calKarmaAward(awardee,taskDifficulty,address(this));\r\n        if (taskDifficulty == 9) {\r\n          cantClaim[awardee] = true; //if the address has claimed a new product registration reward, she cant claim again\r\n        }\r\n        claimCount[awardee]++; //only a certain number of claims are allowed - this logic is evolving\r\n    }\r\n\r\n    /// The below functions are evolving and will eventually replace the above function\r\n\r\n/*\r\n    function claimKarma(address awardee, uint taskDifficulty, bytes32 _refNo) public onlyOwner{\r\n        require (taskDifficulty != 8);\r\n        require (taskDifficulty>0 && taskDifficulty<10);\r\n        if (taskDifficulty == 9) {\r\n            require ((!cantClaim[awardee]) && (claimCount[awardee]<claimCountLimit));\r\n            require (Karma(deployedKarmaBase).registerSale(_refNo, address(this)));\r\n        }\r\n        else{\r\n            require (claimCount[awardee]<claimCountLimit);\r\n            require (Karma(deployedKarmaBase).getSoldStatus(_refNo) == 2);\r\n        }\r\n        Karma(deployedKarmaBase).calKarmaAward(awardee,taskDifficulty,address(this));\r\n        if (taskDifficulty == 9) {\r\n          cantClaim[awardee] = true;\r\n        }\r\n        claimCount[awardee]++;\r\n    }\r\n\r\n    function claimKarma(address awardee, uint taskDifficulty, bytes32 _oldRefNo, bytes32 _newRefNo) public onlyOwner{\r\n        require (taskDifficulty == 8);\r\n        require (Karma(deployedKarmaBase).getSoldStatus(_refNo) == 2);\r\n        require (Karma(deployedKarmaBase).registerSale(_newRefNo, address(this)));\r\n        require (claimCount[awardee]<claimCountLimit);\r\n        Karma(deployedKarmaBase).calKarmaAward(awardee,taskDifficulty,address(this));\r\n        claimCount[awardee]++;\r\n    }\r\n*/\r\n    /// A function to get the name of the member\r\n    function getMemberName() public view returns (string memory) {\r\n      return memberName;\r\n    }\r\n\r\n    /// A function to get the current difficulty level of the member- this is an indication of the price range of the products carried by the member\r\n    function getMemberDifficulty() public view returns (uint) {\r\n      // This can only be called either by the owner of the karma contract or the owner of this instance\r\n      Karma deployedKarma = Karma(deployedKarmaBase);\r\n      require((msg.sender == deployedKarma.getCurrentOwner())  || (msg.sender == _owner));\r\n      return baseDifficulty;\r\n    }\r\n\r\n    ///A function to update the name of the member\r\n    /// @param newName A string denoting the new name of the member\r\n    function setMemberName(string memory newName) public {\r\n      Karma deployedKarma = Karma(deployedKarmaBase);\r\n      require((msg.sender == deployedKarma.getCurrentOwner()) || (msg.sender == _owner)); //Member name can be chnaged only by the Karma owner or the member owner\r\n      memberName = newName;\r\n    }\r\n\r\n    ///A function to update the difficulty of the member - done if the range of price of the products carried by the member changes\r\n    /// @param newDifficulty A string denoting the new name of the memeber\r\n    function setMemberDifficulty(uint newDifficulty) public {\r\n      require(newDifficulty>0 && newDifficulty<11); //difficulty must be within range\r\n      Karma deployedKarma = Karma(deployedKarmaBase);\r\n      require(msg.sender == deployedKarma.getCurrentOwner()); // Member difficulty cn only be chnaged by the Karma owner\r\n      baseDifficulty = newDifficulty;\r\n    }\r\n\r\n}\r\n",
  "sourcePath": "D:/expt/final-project-m4bc2/contracts/Karma.sol",
  "compiler": {
    "name": "solc",
    "version": "0.5.0+commit.1d4f565a.Emscripten.clang"
  },
  "schemaVersion": "3.0.1",
  "updatedAt": "2019-01-27T01:42:23.718Z",
  "devdoc": {
    "methods": {
      "isOwner()": {
        "return": "true if `msg.sender` is the owner of the contract."
      },
      "owner()": {
        "return": "the address of the owner."
      },
      "renounceOwnership()": {
        "details": "Allows the current owner to relinquish control of the contract."
      },
      "transferOwnership(address)": {
        "details": "Allows the current owner to transfer control of the contract to a newOwner.",
        "params": {
          "newOwner": "The address to transfer ownership to."
        }
      }
    }
  },
  "userdoc": {
    "methods": {
      "renounceOwnership()": {
        "notice": "Renouncing to ownership will leave the contract without an owner. It will not be possible to call the functions with the `onlyOwner` modifier anymore."
      }
    }
  }
}